:020000040800F2
:10000000380600200101000805010008070100086A
:10001000090100080B0100080D01000800000000A4
:100020000000000000000000000000000F010008B8
:100030001101000800000000130100083D0600083F
:100040001701000817010008170100081701000830
:1000500017010008170100087B04000817010008B9
:100060001701000817010008170100081701000810
:100070001701000817010008170100081701000800
:1000800017010008170100081701000817010008F0
:1000900017010008170100081701000817010008E0
:1000A0001701000821040008170100084504000892
:1000B00093050008D705000817010008170100087C
:1000C00017010008170100081701000817010008B0
:1000D00017010008170100081701000817010008A0
:1000E0004D0500081701000817010008DFF80CD0C3
:1000F00000F00AFD00480047C50600083806002049
:1001000005480047FEE7FEE7FEE7FEE7FEE7FEE7FD
:10011000FEE7FEE7FEE7FEE7ED0000081220AE492D
:1001200008607047AD48AE494860AE48086000BFFF
:10013000AB48006800F400300028F9D000BFA848A0
:10014000006800F000700028F9D000BFA4484068A3
:1001500000F00C000828F9D17047704745F255505F
:10016000A14908600220486040F69F7088604AF606
:10017000AA2008604CF6CC40086070477047984849
:10018000C06940F080509649C8619848006840F4C2
:100190008070964908609248006A40F001009049DA
:1001A000086200BF8E48006A00F002000028F9D003
:1001B0008B48006A40F40140894908628C480088F5
:1001C00040F010008A4908800020091D088047F689
:1001D000FF70091D08800020854914310880091D21
:1001E0000880091D08803C20091D088001208049E5
:1001F000091F08807F48006840F008004FF0E021A8
:10020000C1F800017A48008820F010007849088081
:1002100000BF7748008800F020000028F9D073481C
:10022000006820F480707149086070476C488069EC
:1002300040F400606A49886140F21B206E490880E2
:100240004CF24F30091D08800220091D0880002053
:10025000694928390880091D0880012066491C3930
:1002600008806448006840F000704FF0E021C1F859
:10027000000161482838008840F001005E492839B3
:10028000088070475648806940F0040054498861EE
:100290005A485B4908600020091D08605048806981
:1002A00040F008004E4988614FF4401055490860FD
:1002B0005548091D08604A48806940F010004849C7
:1002C00088610020514908604FF480004860704701
:1002D0004F48406820F004004D494860404880691C
:1002E00040F004003E4988614548001D006820F444
:1002F0007F604349091D08600846006840F0B0006F
:1003000008600846006840F48060086034488069EE
:1003100040F48040324988614EF21B603D490880BC
:100320000020091D0880091D0880081F0088091F7A
:100330000880002037490C3108803648001D0088AD
:1003400040F00C003349091D08800846008840F43D
:10035000005008807047704770472148C06940F0DE
:1003600000601F49C8610846C06940F08050C861FC
:100370001E48006840F480701C490860002026492F
:100380000880091D08800846008840F003000880A6
:100390001648006820F48070144908601E48001D4B
:1003A000008800F0040038B11248006840F00400F2
:1003B0004FF0E021C1F80001704700B5FFF7AEFE35
:1003C000FFF7B0FEFFF732FFFFF75CFFFFF780FF9C
:1003D00000BD1248704700000020024002841D004A
:1003E0000010024082000101003000400070004017
:1003F0000428004000E100E0282C0140040BB3BBBE
:1004000000080140000C014000404444001001403D
:100410000000014008380140306C004080F937038B
:10042000FE48008800F0010058B1FD48006840F027
:100430002000FB490860F948008820F00100F749D6
:1004400008807047F548008800F0020088B1F54840
:10045000C06820F40050F349C860F148006820F0FB
:100460002000EF490860ED48008820F00200EB49C9
:1004700008807047EC480068704700B5EB4800689A
:1004800000F00100002860D0FFF7F4FF00EB8000CF
:100490004000E749E74A126841F82200E548006851
:1004A000002844DD0846E349096850F82110E14876
:1004B0000068401EDE4A52F82000091ADD48006834
:1004C000401EDD4A42F82010DA480068401E1146FE
:1004D00051F8200043F2C82188420CD9D548006861
:1004E000401E114651F8200043F2B061884202D20A
:1004F0000120D0490860CF480068401ECE4951F81D
:10050000200042F6F821884211D9CA480068401EEE
:10051000C94951F8200042F6E061884207D24FF005
:10052000FF30C4490860C5480068C5490860C14833
:100530000068401CBF49086008460068222801D1B5
:10054000002008600120B949086000BD00B5B74827
:10055000006800F40050D8B1B248806800F4005040
:1005600020B1FFF787FFB74908600DE0FFF782FF72
:10057000B549086008460068B2490968401A00EBAE
:1005800080004000B14908604FF40050A74908605E
:1005900000BD4FF08040008A00F0010050B12020E3
:1005A0009F49091D08604006008A20F00100890665
:1005B00008820FE04FF08040008A00F0020048B14E
:1005C00020209749083108604006008A20F0020088
:1005D0000907088270479E48008800F0010058B162
:1005E0004FF480708E49091D08609948008820F0FA
:1005F0000100974908800FE09548008800F002004C
:1006000050B14FF4807086490831086090480088E6
:1006100020F002008E49088070478E49086000BFB4
:100620008C4909680029FBD170478A48006820B1CD
:1006300088480068401E87490860704700B5FFF78A
:10064000F4FF79480068401C7749086000BD824883
:100650000068401C804908600846006840F271212B
:10066000884208D100207C4908604FF480706C49B2
:10067000091D08600AE078480068784909688842DE
:1006800004D14FF48070664908310860704774489F
:100690000068401C7249086008460068642806D15A
:1006A0000020086020205E49091D086009E06C48B0
:1006B00000686C490968884203D1202058490831F4
:1006C00008607047FFF779FE4FF434704FF0E02177
:1006D0004861072008616448806940F0040062496D
:1006E00088610846806940F010008861084680698A
:1006F00040F4007088610846C06940F00100C8619C
:100700000846C06940F00200C8610846806940F0B0
:10071000010088610846406940F001004861404896
:100720000C38006820F470003D490C390860084618
:10073000006840F440100860081D006820F00F00B9
:10074000091D08600846006840F00300086035484D
:10075000006820F00F00334908600846006840F048
:10076000040008602E480C38006820F00F002C4967
:100770000C3908600846006840F0040008602B4807
:100780001438006840F001002849143908602748EF
:100790000838006840F001002449083908603348EF
:1007A000806840F0020031498860204814380068B1
:1007B00040F400501D49143908601C48083800688E
:1007C00040F40050194908390860081F006840F4D7
:1007D0000050091F08602548406940F02001234867
:1007E00041618003008840F001004FF080410880A3
:1007F000482008854FF4FA608885002088840846E0
:10080000808940F00300888160200883C8208886A2
:100810000F481038008840F0010029E0102C0140FA
:100820000C080140001001400800002014040140A1
:10083000A800002074000020480100209000002043
:100840008C0000206C000020680000207000002058
:10085000100400400C000020380000203000002070
:10086000340000202C000020001002400000014055
:1008700091491039088048208F491831088044F682
:100880002060091D088000208B49143108808A48A7
:10089000001F008840F003008749091F088060207E
:1008A0008549083108804FF4FA6083492431088073
:1008B00001208249C86082480861824848618815E1
:1008C0007F49483908608048091D08600020091DDB
:1008D00008600520091D086040F2215077498860B2
:1008E0007A48006840F080504FF0E021C1F80001E4
:1008F0000846D0F8000140F00050C1F80001084659
:10090000D0F8000140F04000C1F800010846D0F8DE
:10091000040140F48070C1F80401CBE0FFF7AAFDA8
:100920006B490860084600686A490968401AB0F5D2
:100930007A7F14D96648006866490860664800688E
:1009400014306549086008460068B0F5FA6F01DBAD
:1009500014200860604800884FF0804188865C4819
:1009600000685E490968401AB0F5FA6F17D958480F
:1009700000685A4908605A480068103058490860B1
:100980000846006840F6FC01884203DD4FF42F70F2
:10099000534908605248008847492431088051482B
:1009A00000680128B9D100204E4908604E4908600E
:1009B00035E04E494C480068401C51F82000B0F525
:1009C0007A7F0FD948480068401C51F8200040F257
:1009D000DC51884206D200204549434A126841F85A
:1009E000220017E0414940480068401C51F82000AF
:1009F000B0F5FA6F0ED93C480068401C51F8200051
:100A000040F6C411884205D201213948364A12689D
:100A100040F8221034480068401C334908603248CE
:100A200000682028C5DB0020324908602E49086094
:100A300017E03048006840002E4908602A480068E6
:100A400010302B4951F82000012805D129480068B1
:100A500040F001002749086023480068401C2249F3
:100A60000860214800680828E3DB22480078224912
:100A700008700020214908601B49086015E02048E3
:100A800019490968405C1C490978884208D1164810
:100A900000681A490860144800681A49086008E0AC
:100AA00011480068401C104908600F4800680A2877
:100AB000E5DB00BF32E70000100400400000024008
:100AC0004C2401409400002003011E0000E100E0DE
:100AD000A0000020980000202C0000209C00002096
:100AE0003000002078000020400000204801002055
:100AF000980100207C000020800000208C00002055
:100B00008100002090000020064C074D06E0E068C0
:100B100040F0010394E8070098471034AC42F6D344
:100B2000FFF7E8FA4C0B00086C0B000802E008C85D
:100B3000121F08C1002AFAD170477047002001E057
:100B400001C1121F002AFBD1704700006C0B000886
:100B500000000020A80000002C0B0008140C000866
:100B6000A8000020900500003C0B000800000000D9
:100B70000000000000000000000000000000000075
:100B80000000000000000000000000000000000065
:100B9000000000000000000000000000BC02000097
:100BA0000000000000000000000000000000000045
:100BB00000000000000000000038000000330000CA
:100BC00000040000001800000004000000440000C1
:100BD00000380000000000000000000000000000DD
:100BE0000000000000000000000000000068301855
:100BF0007A10385A424A52000000000000000000FB
:100C000000000000000000000000000000000000E4
:040C100000000000E0
:04000005080000ED02
:00000001FF
