:020000040800F2
:10000000780400200101000805010008070100082C
:10001000090100080B0100080D01000800000000A4
:100020000000000000000000000000000F010008B8
:100030001101000800000000130100082505000858
:100040001701000817010008170100081701000830
:100050001701000817010008170100081701000820
:100060001701000817010008170100081701000810
:100070001701000817010008170100081701000800
:1000800017010008170100081701000817010008F0
:1000900017010008170100081701000817010008E0
:1000A0001701000821040008170100084504000892
:1000B00075040008B90400081701000817010008BA
:1000C00017010008170100081701000817010008B0
:1000D00017010008170100081701000817010008A0
:1000E000170100081701000817010008DFF80CD0FD
:1000F00000F038FB00480047AD05000878040020F8
:1001000005480047FEE7FEE7FEE7FEE7FEE7FEE7FD
:10011000FEE7FEE7FEE7FEE7ED0000081220AE492D
:1001200008607047AD48AE494860AE48086000BFFF
:10013000AB48006800F400300028F9D000BFA848A0
:10014000006800F000700028F9D000BFA4484068A3
:1001500000F00C000828F9D17047704745F255505F
:10016000A14908600220486040F69F7088604AF606
:10017000AA2008604CF6CC40086070477047984849
:10018000C06940F080509649C8619848006840F4C2
:100190008070964908609248006A40F001009049DA
:1001A000086200BF8E48006A00F002000028F9D003
:1001B0008B48006A40F40140894908628C480088F5
:1001C00040F010008A4908800020091D088047F689
:1001D000FF70091D08800020854914310880091D21
:1001E0000880091D08803C20091D088001208049E5
:1001F000091F08807F48006840F008004FF0E021A8
:10020000C1F800017A48008820F010007849088081
:1002100000BF7748008800F020000028F9D073481C
:10022000006820F480707149086070476C488069EC
:1002300040F400606A49886140F21B206E490880E2
:100240004CF24F30091D08800220091D0880002053
:10025000694928390880091D0880012066491C3930
:1002600008806448006840F000704FF0E021C1F859
:10027000000161482838008840F001005E492839B3
:10028000088070475648806940F0040054498861EE
:100290005A485B4908600020091D08605048806981
:1002A00040F008004E4988614FF4401055490860FD
:1002B0005548091D08604A48806940F010004849C7
:1002C00088610020514908604FF480004860704701
:1002D0004F48406820F004004D494860404880691C
:1002E00040F004003E4988614548001D006820F444
:1002F0007F604349091D08600846006840F0B0006F
:1003000008600846006840F48060086034488069EE
:1003100040F48040324988614EF21B603D490880BC
:100320000020091D0880091D0880081F0088091F7A
:100330000880002037490C3108803648001D0088AD
:1003400040F00C003349091D08800846008840F43D
:10035000005008807047704770472148C06940F0DE
:1003600000601F49C8610846C06940F08050C861FC
:100370001E48006840F480701C490860002026492F
:100380000880091D08800846008840F003000880A6
:100390001648006820F48070144908601E48001D4B
:1003A000008800F0040038B11248006840F00400F2
:1003B0004FF0E021C1F80001704700B5FFF7AEFE35
:1003C000FFF7B0FEFFF732FFFFF75CFFFFF780FF9C
:1003D00000BD1248704700000020024002841D004A
:1003E0000010024082000101003000400070004017
:1003F0000428004000E100E0282C0140040BB3BBBE
:1004000000080140000C014000404444001001403D
:100410000000014008380140306C004080F937038B
:10042000C148008800F0010058B1C048006840F0A1
:100430002000BE490860BC48008820F00100BA498D
:1004400008807047B848008800F0020088B1B848BA
:10045000C06820F40050B649C860B448006820F075
:100460002000B2490860B048008820F00200AE4980
:10047000088070474FF08040008A00F0010050B1C2
:100480002020AA49091D08604006008A20F00100CA
:10049000890608820FE04FF08040008A00F00200D9
:1004A00048B12020A149083108604006008A20F0A8
:1004B00002000907088270479E48008800F001008A
:1004C00058B14FF480709949091D08609948008817
:1004D00020F00100974908800FE09648008800F05E
:1004E000020050B14FF48070904908310860914883
:1004F000008820F002008F49088070478E4800680D
:1005000070478E49086000BF8C4909680029FBD1FB
:1005100070478A48006820B188480068401E8749B3
:100520000860704700B5FFF7F4FF83480068401C7F
:100530008149086000BD82480068401C804908600D
:100540000846006840F27121884208D100207C49A9
:1005500008604FF480707549091D08600AE078480A
:10056000006878490968884204D14FF480706F4967
:1005700008310860704774480068401C7249086080
:1005800008460068642806D10020086020206749DA
:10059000091D086009E06C4800686C4909688842D8
:1005A00003D120206149083108607047FFF705FF3B
:1005B0004FF434704FF0E02148610720086164482F
:1005C000806940F00400624988610846C06940F0D3
:1005D0000100C8610846C06940F00200C861534884
:1005E0000C38006820F4700050490C390860084647
:1005F000006840F440100860081D006820F00F00FB
:10060000091D08600846006840F0030008600807FC
:10061000008840F0010009070880482008854FF451
:10062000FA608885002088840846808940F00300AD
:10063000888160200883C82088863E48103800885A
:1006400040F001003B4910390880482039491831F1
:10065000088044F62060091D0880002035491431C7
:1006600008803448001F008840F003003149091F0A
:10067000088060202F49083108804FF4FA602D4926
:10068000243108803348006840F080504FF0E0216A
:10069000C1F800010846D0F8000140F00050C1F850
:1006A000000140E0FFF72AFF2B4908600846006878
:1006B0002A490968401AB0F57A7F14D9264800689B
:1006C000264908602148006814302049086008461F
:1006D0000068B0F5FA6F01DB142008601B48008841
:1006E0004FF0804188861C4800681D490968401AFF
:1006F000B0F5FA6F17D91848006819490860114811
:10070000006810300F4908600846006840F6FC0198
:10071000884203DD4FF42F700A49086009480088B9
:10072000044924310880BDE7102C01400C08014029
:100730000010014010040040080000200C000020C0
:100740003800002030000020340000202C00002061
:100750000010024000E100E070000020680000206E
:100760006C000020064C074D06E0E06840F00103F5
:1007700094E8070098471034AC42F6D3FFF7BAFC70
:10078000A8070008C807000802E008C8121F08C12F
:10079000002AFAD170477047002001E001C1121F02
:1007A000002AFBD170470000C807000800000020A5
:1007B0007800000088070008400800087800002042
:1007C000000400009807000800000000000000007E
:1007D0000000000000000000000000000000000019
:1007E0000000000000000000000000000000000009
:1007F0000000000000000000BC020000000000003B
:1008000000000000000000000000000000000000E8
:100810000000000000380000003300000004000069
:100820000018000000040000004400000038000030
:1008300000000000000000000000000000000000B8
:04000005080000ED02
:00000001FF
