:020000040800F2
:10000000C8040020010100089B03000893030008B6
:100010009703000849010008E106000800000000FD
:10002000000000000000000000000000650400085F
:100030004D010008000000000D040008190100082F
:100040001B0100081B0100081B0100081B01000820
:100050001B0100081B010008510100081B010008DA
:100060001B0100081B0100081B0100081B01000800
:100070001B0100081B0100081B0100081B010008F0
:100080001B0100081B0100081B0100081B010008E0
:100090001B0100081B0100081B010008F5010008F6
:1000A0001B0100081B0100081B0100081B010008C0
:1000B000B10500081B0100081B0100081B01000816
:1000C0001B0100081B0100081B0100081B010008A0
:1000D0001B0100081B0100081B0100081B01000890
:1000E000DD0100081B0100081B010008DFF80CD02F
:1000F00000F018F80048004725070008C804002051
:100100000648804706480047FEE7FEE7FEE7FEE7B1
:10011000FEE7FEE7FEE7FEE7FEE7FEE75105000823
:10012000ED000008064C074D06E0E06840F00103D2
:1001300094E8070098471034AC42F6D3FFF7DAFF93
:100140008C070008AC07000800BFFEE770470000FE
:100150001B48006800F0010088B31A49096801F0E3
:10016000010020B118490968184A11600BE050B924
:1001700015490968164A116011460968134A126840
:10018000891A144A11601449096881F00101124A60
:10019000116041B90B49091D096821F02001094A84
:1001A000121D116007E00749091D096841F020018F
:1001B000044A121D11600121014A116000BF7047FD
:1001C0001404014008080140640000205800002089
:1001D0005C000020500000200C0000200448006853
:1001E00000F4005018B14FF4005001490860704706
:1001F000140401401C48006800F02000B8B11B48FE
:10020000006880F001001949086030B91848C068DA
:1002100020F480701649C86005E01548C06840F4B5
:1002200080701349C86020200F4908601BE00E4809
:10023000006800F04000B0B10E48006880F0010096
:100240000C49086030B90C48006820F080000A4969
:10025000086005E00848006840F080000649086032
:100260004020014908607047140401400C00002040
:1002700000100140100000200C0C01402DE9F0415D
:10028000024600250026002000230024002791F8C4
:1002900003C00CF00F0591F803C00CF0100CBCF17A
:1002A000000F03D091F802C04CEA050591F800C098
:1002B000BCF1000F31D0146800202BE04FF0010C8E
:1002C0000CFA00F3B1F800C00CEA03069E4220D1FC
:1002D00083004FF00F0C0CFA03F7BC4305FA03FC44
:1002E0004CEA040491F803C0BCF1280F06D14FF08A
:1002F000010C0CFA00FCC2F814C00AE091F803C02B
:10030000BCF1480F05D14FF0010C0CFA00FCC2F80B
:1003100010C0401C0828D1D31460B1F800C0BCF153
:10032000FF0F34DD546800202EE000F1080C4FF080
:10033000010808FA0CF3B1F800C00CEA03069E426B
:1003400021D183004FF00F0C0CFA03F7BC4305FAE0
:1003500003FC4CEA040491F803C0BCF1280F05D15A
:1003600000F1080C08FA0CF8C2F8148091F803C0E8
:10037000BCF1480F07D100F1080C4FF0010808FA52
:100380000CF8C2F81080401C0828CED35460BDE899
:10039000F08100BFFEE700BFFEE7704770B50021A7
:1003A00000230F22C47804B3154C246804F4E064DD
:1003B000C4F5E064210AC1F10403CA40447804FA98
:1003C00003F184781440214309010E4C0678A155AD
:1003D000047804F01F050124AC4005786D11AD00D0
:1003E00005F1E025C5F8004109E0047804F01F0597
:1003F0000124AC40044D0678761145F8264070BDC6
:100400000CED00E000E400E080E100E07047000057
:1004100029B1064AD2690243044BDA6104E0034A77
:10042000D2698243014BDA6170470000001002403C
:1004300029B1064A92690243044B9A6104E0034AD7
:1004400092698243014B9A6170470000001002409C
:1004500010B501210420FFF7EBFF01210846FFF74B
:10046000D7FF10BD704710B500F002F810BD0000B6
:100470000CB50020019000903348006840F48030B3
:100480003149086000BF3048006800F40030009037
:100490000198401C0190009818B90198B0F5A06F20
:1004A000F1D12948006800F4003010B1012000901B
:1004B00001E0002000900098012843D12348006803
:1004C00040F01000214908600846006820F0030051
:1004D00008600846006840F0020008601A4840685A
:1004E000194948600846406848600846406840F43A
:1004F000806048600846406820F47C1048600846E8
:10050000406840F4E81048600846006840F0807099
:10051000086000BF0C48006800F000700028F9D0A7
:100520000948406820F003000749486008464068D1
:1005300040F00200486000BF0348406800F00C0033
:100540000828F9D10CBD0000001002400020024034
:1005500010B51348006840F00100114908600846D2
:100560004068104908400E494860084600680E4936
:1005700008400B4908600846006820F480200860A5
:100580000846406820F4FE0048604FF41F00886071
:10059000FFF769FF4FF000600449086010BD0000DC
:1005A000001002400000FFF8FFFFF6FE08ED00E03B
:1005B0004FF08040008A00F0010018B31248006834
:1005C000401C1149086008460068642808DB0020C8
:1005D00008600E48006840F020000C49086009E0FF
:1005E000094800680A2805D10848006820F0200062
:1005F000064908604FF08040008A20F001004FF06B
:100600008041088270470000640000200C0801400F
:1006100021B1028842F00102028004E002884FF614
:10062000FE731A40028070471AB183890B4383819D
:1006300002E083898B438381704700000022028897
:100640001D4B98420ED01D4B98420BD0B0F1804FFD
:1006500008D01B4B984205D01A4B984202D01A4B37
:10066000984204D14FF68F731A404B881A43174BA8
:10067000984207D0164B984204D04FF6FF431A40D9
:10068000CB881A4302808B8883850B8803850A4BAD
:1006900098420BD0094B984208D00E4B984205D097
:1006A0000D4B984202D00D4B984201D10B7A038634
:1006B0000123838270470000002C01400034014078
:1006C0000004004000080040000C00400010004002
:1006D0000014004000400140004401400048014037
:1006E00000BFFEE702E008C8121F08C1002AFAD1C5
:1006F00070477047002001E001C1121F002AFBD1A2
:100700007047000010B5202004490880032088703D
:100710001020C8700248FFF7B1FD10BD080000208E
:1007200000080140FFF794FEFFF7ECFF00F014F81B
:1007300000F002F800BFFEE710B51C200549087064
:100740000020487001208870C8700846FFF726FE18
:1007500010BD00003400002010B564200A498880D4
:10076000482008800020C88048804FF08040FFF774
:1007700065FF012211469007FFF756FF0121880708
:10078000FFF746FF10BD0000B8000020AC070008CE
:100790000000002068000000E406000814080008BB
:1007A0006800002060040000F4060008000000005B
:1007B0000000000000000000000000000000000039
:1007C0000000000000000000000000000000000029
:1007D0000000000000000000000000000000000019
:1007E0000000000000000000000000000000000009
:1007F00000000000010000000000000000000000F8
:1008000000000000000000000000000000000000E8
:0408100000000000E4
:04000005080000ED02
:00000001FF
