:020000040800F2
:100000003004002001010008050100080701000874
:10001000090100080B0100080D01000800000000A4
:100020000000000000000000000000000F010008B8
:10003000110100080000000013010008AD060008CF
:100040001701000817010008170100081701000830
:100050001701000817010008AD0400081F0500087B
:100060001701000817010008170100081701000810
:100070001701000817010008170100081701000800
:1000800017010008170100081701000817010008F0
:10009000170100081701000817010008670500088C
:1000A00017010008170100081701000817010008D0
:1000B0001F060008170100081701000817010008B3
:1000C00017010008170100081701000817010008B0
:1000D00017010008170100081701000817010008A0
:1000E000DB0500081701000817010008DFF80CD035
:1000F00000F0A6FB00480047BF06000830040020BF
:1001000005480047FEE7FEE7FEE7FEE7FEE7FEE7FD
:10011000FEE7FEE7FEE7FEE7ED0000081220C44917
:1001200008607047C348C4494860C448086000BFBD
:10013000C148006800F400300028F9D000BFBE4874
:10014000006800F000700028F9D000BFBA4840688D
:1001500000F00C000828F9D17047704745F255505F
:10016000B74908600220486040F69F7088604AF6F0
:10017000AA2008604CF6CC40086070477047AE4833
:10018000C06940F08050AC49C861AE48006840F496
:100190008070AC490860A848006A40F00100A64998
:1001A000086200BFA448006A00F002000028F9D0ED
:1001B000A148006A40F401409F490862A2480088B3
:1001C00040F01000A04908800020091D088047F673
:1001D000FF70091D088000209B4914310880091D0B
:1001E0000880091D08803C20091D088001209649CF
:1001F000091F08809548006840F008004FF0E02192
:10020000C1F800019048008820F010008E49088055
:1002100000BF8D48008800F020000028F9D08948F0
:10022000006820F480708749086070478248C06980
:1002300040F001008049C86100208904088542F629
:100240002F208885002008808880088548208885A0
:100250000020888608870520888700207C49088040
:100260000906088360208883881508840020088197
:1002700004200880002088800846008840F00100A3
:10028000088070476C48806940F004006A498861C2
:100290007048714908600020091D0860664880693F
:1002A00040F00800644988614FF440106B490860D1
:1002B0006B48091D08606048806940F010005E4985
:1002C00088610020674908604FF4800048607047EB
:1002D0006548406820F004006349486056488069DA
:1002E00040F00400544988615B48001D006820F418
:1002F0007F605949091D08600846006840F0B00059
:1003000008600846006840F4806008604A488069D8
:1003100040F48040484988614EF21B605349088090
:100320000020091D0880091D0880081F0088091F7A
:10033000088000204D490C3108804C48001D008881
:1003400040F00C004949091D08800846008840F427
:100350000050088070473848806940F001003649F5
:100360008861414880684FF6F07108403E498860D6
:100370000846806888603E48006840F001003C49BB
:100380000860081D0068091D0860081D0068091D37
:100390000860081D006840F00100091D08602B4836
:1003A000006840F040004FF0E021C1F800017047C4
:1003B00070472148C06940F000601F49C861084685
:1003C000C06940F08050C8611E48006840F48070E9
:1003D0001C490860002027490880091D088008463C
:1003E000008840F0030008801648006820F4807000
:1003F000144908601F48001D008800F0040038B14F
:100400001248006840F004004FF0E021C1F80001FC
:10041000704700B5FFF782FEFFF784FEFFF706FF87
:10042000FFF730FFFFF797FF00BD1348704700004C
:100430000020024002841D000010024082000101E1
:1004400000300040007000400428004000E100E05F
:1004500040000040040BB3BB00080140000C014009
:1004600000404444001001400000014008380140B1
:1004700000040140306C004080F93703DD4800681B
:1004800040F00400DB4908600846006840F00200C4
:100490000860D948006840F00400D749086000BFF0
:1004A00000BF30BF7047D5480068704700B5D448DA
:1004B000006800F0010088B3D248006800F0010134
:1004C00021B1FFF7F0FFD04A10600BE051B9FFF700
:1004D000EAFFCE4A106010460068CB4A1268801AC4
:1004E000CB4A1060CB48006880F00100C94A106018
:1004F00040B9C448001D006820F02000C14A121D08
:10050000106007E0BF48001D006840F02000BD4AB1
:10051000121D10600120BA4A106000BF00BDB8482B
:10052000006800F00200D0B1BB48006880F0010014
:10053000B949086040B9B348001D006820F48070D4
:10054000B049091D086007E0AE48001D006840F48E
:100550008070AC49091D08600220A949086001208B
:10056000A64908607047A648006800F02000B8B1AE
:10057000A848006880F00100A649086030B9A74883
:10058000C06820F48070A549C86005E0A348C06831
:1005900040F48070A149C8602020994908601BE0A0
:1005A0009748006800F04000B0B19B48006880F0B8
:1005B00001009949086030B99948006820F080002E
:1005C0009749086005E09648006840F0800094492B
:1005D000086040208A49086070478948006800F434
:1005E0000050D8B18B48006880F00100894908604C
:1005F00040B98448001D006820F020008149091D91
:10060000086007E07F48001D006840F020007D4939
:10061000091D08604FF400507949086070474FF099
:100620008040008A00F0010070B379480068B0F59E
:100630002F7F0CD27B4800684001794908607948D7
:10064000006808B9012000E000207649086076487B
:100650000068C043744908600846006830B17048BB
:10066000006820F400506E49086005E06C4800689E
:1006700040F400506A4908604FF08040008A20F042
:1006800001004FF08041088270476849086000BF50
:10069000664909680029FBD170476448006820B1A9
:1006A00062480068401E61490860704700B5FFF766
:1006B000F4FF52480068401C5049086000BD002407
:1006C0000025002600BFFFF7A4FE06204FF0E02122
:1006D000086148204861072008614FF4407049498B
:1006E000091F086003204D4908600005486042F278
:1006F0000100434914390860414908390860012064
:10070000091F086020214A484161C0014949086029
:10071000012081070880888100208884482008857E
:1007200040F2FB4088854FF0E020D0F8000140F017
:100730008050404908605CE04FF480603149091DF9
:1007400008600A20FFF7A1FF00202E49091D08605C
:100750000A20FFF79AFF3848FFF797FFFFF7A3FE3D
:1007600005462B480068B0F52F7F1AD2284800684C
:10077000B0F5FA7F15D9A81B3049884239D92E46E1
:10078000012C06D101202549C8608107088000247A
:100790002FE02CBB00202149C86089040880012477
:1007A00027E01B480068B0F5FA7F1AD218480068A5
:1007B000B0F5967F15D9A81B1F49884219D92E4636
:1007C000012C06D101201549C8608107088000244A
:1007D0000FE02CB900201149C86089040880012469
:1007E00007E00B480068B0F5967F02D20120810730
:1007F0000880A1E70070004010ED00E00800002034
:1008000014040140080801401000002014000020DA
:10081000180000200000002004000020001001400B
:100820000C0C0140280000201C0000200C000020BF
:100830000000014000E100E0A0860100E093040018
:10084000064C074D06E0E06840F0010394E807001D
:1008500098471034AC42F6D3FFF74CFC84080008EC
:10086000A408000802E008C8121F08C1002AFAD133
:1008700070477047002001E001C1121F002AFBD120
:1008800070470000A4080008000000202C000000B1
:1008900064080008D00800082C00002004040000B0
:1008A00074080008000000000000000000000000C4
:1008B0000000000000000000000000000000000038
:1008C0000000000000000000000000000000000028
:04000005080000ED02
:00000001FF
