:020000040800F2
:1000000088040020890100088D0100088F01000884
:10001000910100089301000895010008000000000C
:100020000000000000000000000000009701000830
:1000300099010008000000009B0100086705000806
:100040009F0100089F0100089F0100089F01000810
:100050009F0100089F0100089F0100089F01000800
:100060009F0100089F0100089F0100089F010008F0
:100070009F0100089F0100089F0100089F010008E0
:100080009F0100089F0100089F0100089F010008D0
:100090009F0100089F0100089F0100089F010008C0
:1000A0009F0100089F0100089F0100089F010008B0
:1000B000C10400089F0100089F0100089F0100087B
:1000C0009F0100089F0100089F0100089F01000890
:1000D0009F0100089F0100089F0100089F01000880
:1000E0009F0100089F0100089F01000800F002F82E
:1000F00000F03AF80AA090E8000C82448344AAF188
:100100000107DA4501D100F02FF8AFF2090EBAE885
:100110000F0013F0010F18BFFB1A43F0010318473B
:100120009C050000BC050000103A24BF78C878C1C7
:10013000FAD8520724BF30C830C144BF04680C60ED
:10014000704700000023002400250026103A28BF35
:1001500078C1FBD8520728BF30C148BF0B60704739
:100160001FB51FBD10B510BD00F071FA1146FFF7A5
:10017000F7FF00F004FA00F08FFA03B4FFF7F2FF84
:1001800003BC00F093FA000008480047FEE7FEE7D2
:10019000FEE7FEE7FEE7FEE7FEE7FEE7FEE7FEE737
:1001A00003480449024A044B70470000ED00000870
:1001B0008800002088040020880000201220AE491A
:1001C00008607047AD48AE494860AE48086000BF5F
:1001D000AB48006800F400300028F9D000BFA84800
:1001E000006800F000700028F9D000BFA448406803
:1001F00000F00C000828F9D17047704745F25550BF
:10020000A14908600220486040F69F7088604AF665
:10021000AA2008604CF6CC400860704770479848A8
:10022000C06940F080509649C8619848006840F421
:100230008070964908609248006A40F00100904939
:10024000086200BF8E48006A00F002000028F9D062
:100250008B48006A40F40140894908628C48008854
:1002600040F010008A4908800020091D088047F6E8
:10027000FF70091D08800020854914310880091D80
:100280000880091D08803C20091D08800120804944
:10029000091F08807F48006840F008004FF0E02107
:1002A000C1F800017A48008820F0100078490880E1
:1002B00000BF7748008800F020000028F9D073487C
:1002C000006820F480707149086070476C4880694C
:1002D00040F400606A49886140F21B206E49088042
:1002E0004CF24F30091D08800220091D08800020B3
:1002F000694928390880091D0880012066491C3990
:1003000008806448006840F000704FF0E021C1F8B8
:10031000000161482838008840F001005E49283912
:10032000088070475648806940F00400544988614D
:100330005A485B4908600020091D086050488069E0
:1003400040F008004E4988614FF44010554908605C
:100350005548091D08604A48806940F01000484926
:1003600088610020514908604FF480004860704760
:100370004F48406820F004004D494860404880697B
:1003800040F004003E4988614548001D006820F4A3
:100390007F604349091D08600846006840F0B000CE
:1003A00008600846006840F480600860344880694E
:1003B00040F48040324988614EF21B603D4908801C
:1003C0000020091D0880091D0880081F0088091FDA
:1003D0000880002037490C3108803648001D00880D
:1003E00040F00C003349091D08800846008840F49D
:1003F000005008807047704770472148C06940F03E
:1004000000601F49C8610846C06940F08050C8615B
:100410001E48006840F480701C490860002026498E
:100420000880091D08800846008840F00300088005
:100430001648006820F48070144908601E48001DAA
:10044000008800F0040038B11248006840F0040051
:100450004FF0E021C1F80001704700B5FFF7AEFE94
:10046000FFF7B0FEFFF732FFFFF75CFFFFF780FFFB
:1004700000BD1248704700000020024002841D00A9
:100480000010024082000101003000400070004076
:100490000428004000E100E0282C0140040BB3BB1D
:1004A00000080140000C014000404444001001409D
:1004B0000000014008380140306C004080F93703EB
:1004C0004FF08040008A00F0010010B355480088CA
:1004D0004FF08041888654480068401C52490860AB
:1004E00008460068082802D10020086009E04E484C
:1004F0000068012805D14D48006840F020004B49B4
:1005000008604FF08040008A20F001004FF08041E9
:1005100008824FF08040008A00F0020088B1424813
:100520000068012805D14148006820F020003F49BB
:1005300008604FF08040008A20F002004FF08041B8
:10054000088270473A49086000BF394909680029A4
:10055000FBD170473648006820B135480068401E1E
:1005600033490860704700B5FFF7F4FF3148006871
:10057000401C3049086000BD2E4800687047FFF7F6
:100580006CFF2D48C06940F001002B49C861012073
:1005900081070880032088816020088300208884E8
:1005A000FA2088854FF434700885462088862348D1
:1005B000006840F000704FF0E021C1F8800108466B
:1005C000D0F8000140F080501C49803908604FF499
:1005D000401016490C39086006204FF0E0210861F0
:1005E0004FF4347048610720086100BFFFF7C4FF73
:1005F000134908600846006812490968401AB0F5B6
:10060000FA6FF3D90E4800680E4908600548006883
:10061000401C0449086008460068E628E6DB4620DE
:100620000860E3E70C000020040000200C080140F3
:1006300020000020140000200010024080E100E0B3
:10064000180000201C000020704770477047754656
:1006500000F028F8AE4605006946534620F0070032
:10066000854618B020B5FFF79BFDBDE820404FF050
:1006700000064FF000074FF000084FF0000B21F08C
:100680000701AC46ACE8C009ACE8C009ACE8C00959
:10069000ACE8C0098D4670470446AFF300802046A1
:1006A000FFF76BFD00487047240000200149182027
:1006B000ABBEFEE72600020070470000DC06000823
:1006C00000000020240000002801000800070008A6
:1006D0002400002064040000440100080000000021
:1006E00000000000000000004600000000000000C4
:1006F00000000000000000000000000000000000FA
:04000005080000ED02
:00000001FF
