:020000040800F2
:1000000090040020890100088D0100088F0100087C
:10001000910100089301000895010008000000000C
:100020000000000000000000000000009701000830
:1000300099010008000000009B0100089B060008D1
:100040009F0100089F0100089F0100089F01000810
:100050009F0100089F0100089F0100089F01000800
:100060009F0100089F0100089F0100089F010008F0
:100070009F0100089F0100089F0100089F010008E0
:100080009F0100089F0100089F0100089F010008D0
:100090009F0100089F0100089F0100089F010008C0
:1000A0009F0100089F0100089F0100089F010008B0
:1000B000C10400089F0100089F0100089F0100087B
:1000C0009F0100089F0100089F0100089F01000890
:1000D0009F0100089F0100089F0100089F01000880
:1000E0009F0100089F0100089F01000800F002F82E
:1000F00000F03AF80AA090E8000C82448344AAF188
:100100000107DA4501D100F02FF8AFF2090EBAE885
:100110000F0013F0010F18BFFB1A43F0010318473B
:100120001C0700003C070000103A24BF78C878C1C3
:10013000FAD8520724BF30C830C144BF04680C60ED
:10014000704700000023002400250026103A28BF35
:1001500078C1FBD8520728BF30C148BF0B60704739
:100160001FB51FBD10B510BD00F031FB1146FFF7E4
:10017000F7FF00F09EFA00F04FFB03B4FFF7F2FF29
:1001800003BC00F053FB000008480047FEE7FEE711
:10019000FEE7FEE7FEE7FEE7FEE7FEE7FEE7FEE737
:1001A00003480449024A044B70470000ED00000870
:1001B0009000002090040020900000201220AE4902
:1001C00008607047AD48AE494860AE48086000BF5F
:1001D000AB48006800F400300028F9D000BFA84800
:1001E000006800F000700028F9D000BFA448406803
:1001F00000F00C000828F9D17047704745F25550BF
:10020000A14908600220486040F69F7088604AF665
:10021000AA2008604CF6CC400860704770479848A8
:10022000C06940F080509649C8619848006840F421
:100230008070964908609248006A40F00100904939
:10024000086200BF8E48006A00F002000028F9D062
:100250008B48006A40F40140894908628C48008854
:1002600040F010008A4908800020091D088047F6E8
:10027000FF70091D08800020854914310880091D80
:100280000880091D08803C20091D08800120804944
:10029000091F08807F48006840F008004FF0E02107
:1002A000C1F800017A48008820F0100078490880E1
:1002B00000BF7748008800F020000028F9D073487C
:1002C000006820F480707149086070476C4880694C
:1002D00040F400606A49886140F21B206E49088042
:1002E0004CF24F30091D08800220091D08800020B3
:1002F000694928390880091D0880012066491C3990
:1003000008806448006840F000704FF0E021C1F8B8
:10031000000161482838008840F001005E49283912
:10032000088070475648806940F00400544988614D
:100330005A485B4908600020091D086050488069E0
:1003400040F008004E4988614FF44010554908605C
:100350005548091D08604A48806940F01000484926
:1003600088610020514908604FF480004860704760
:100370004F48406820F004004D494860404880697B
:1003800040F004003E4988614548001D006820F4A3
:100390007F604349091D08600846006840F0B000CE
:1003A00008600846006840F480600860344880694E
:1003B00040F48040324988614EF21B603D4908801C
:1003C0000020091D0880091D0880081F0088091FDA
:1003D0000880002037490C3108803648001D00880D
:1003E00040F00C003349091D08800846008840F49D
:1003F000005008807047704770472148C06940F03E
:1004000000601F49C8610846C06940F08050C8615B
:100410001E48006840F480701C490860002026498E
:100420000880091D08800846008840F00300088005
:100430001648006820F48070144908601E48001DAA
:10044000008800F0040038B11248006840F0040051
:100450004FF0E021C1F80001704700B5FFF7AEFE94
:10046000FFF7B0FEFFF732FFFFF75CFFFFF780FFFB
:1004700000BD1248704700000020024002841D00A9
:100480000010024082000101003000400070004076
:100490000428004000E100E0282C0140040BB3BB1D
:1004A00000080140000C014000404444001001409D
:1004B0000000014008380140306C004080F93703EB
:1004C0004FF08040008A00F00100002874D0B1484D
:1004D0000068401CAF49086008460068092802D13E
:1004E0000020086060E0AB48006801280BD1AA48F2
:1004F000006840F02000A8490860A84800884FF034
:100500008041888650E0A348006802280BD1A248A9
:10051000006840F04000A0490860A14800884FF002
:100520008041888640E09B480068032806D19A48AD
:10053000006840F080009849086035E09548006800
:10054000042806D19448006840F4807092490860FD
:100550002AE090480068052806D18F48006840F4DA
:1005600000708D4908601FE08A480068062806D19F
:100570008948006840F480608749086014E0854835
:100580000068072806D18448006840F4006082496A
:10059000086009E07F480068082805D17E480068A7
:1005A00040F480507C4908604FF08040008A20F081
:1005B00001004FF0804108824FF08040008A00F037
:1005C0000200002857D073480068012805D17248FE
:1005D000006820F02000704908606E48006802281A
:1005E00005D16D48006820F040006B4908606948FB
:1005F0000068032805D16848006820F0800066493B
:10060000086064480068042805D16348006820F445
:100610008070614908605F480068052805D15E4820
:10062000006820F400705C4908605A480068062899
:1006300005D15948006820F4806057490860554842
:100640000068072805D15448006820F4006052492A
:10065000086050480068082805D14F48006820F419
:1006600080504D4908604FF08040008A20F0020021
:100670004FF08041088270474A49086000BF4949ED
:1006800009680029FBD170474648006820B14548F9
:100690000068401E43490860704700B5FFF7F4FF4B
:1006A00041480068401C4049086000BD3E48006861
:1006B0007047FFF7D2FE3D48C06940F001003B495A
:1006C000C861012081070880032088816020088399
:1006D00000208884FA2088854FF4347008854620ED
:1006E00088863348006840F000704FF0E021C1F880
:1006F00080010846D0F8000140F080502C49803934
:1007000008602C4824490C3908604FF03330091D2B
:10071000086006204FF0E02108614FF43470486112
:100720000720086100BFFFF7C1FF234908600846A2
:10073000006822490968401AB0F5FA6F0ED91E48C0
:1007400000681E49086015480068401C134908608D
:1007500008460068E62801DB46200860FFF7A6FF90
:10076000174908600846006816490968401AB0F53C
:10077000FA6FD8D912480068124908600848006822
:10078000001D0749086008460068E628CBDB4620C4
:100790000860C8E7040000200C0801400C0000209D
:1007A000100000202C000020180000200010024043
:1007B00080E100E0000030331C0000202000002019
:1007C00024000020280000207047704770477546BD
:1007D00000F028F8AE4605006946534620F00700B1
:1007E000854618B020B5FFF7DBFCBDE820404FF090
:1007F00000064FF000074FF000084FF0000B21F00B
:100800000701AC46ACE8C009ACE8C009ACE8C009D7
:10081000ACE8C0098D4670470446AFF3008020461F
:10082000FFF7ABFC0048704730000020014918205A
:10083000ABBEFEE726000200704700005C0800081F
:100840000000002030000000280100088C0800088B
:100850003000002060040000440100080000000097
:1008600000000000000000004600000046000000FC
:100870000000000000000000000000000000000078
:0C0880000000000000000000000000006C
:04000005080000ED02
:00000001FF
