:020000040800F2
:1000000060040020710100084105000899040008FF
:100010003D050008B9010008ED09000800000000D6
:10002000000000000000000000000000C106000801
:10003000C901000800000000C9050008AD0700085C
:100040008B0100088B0100088B0100088B01000860
:100050008B0100088B0100088B0100088B01000850
:100060008B0100088B0100088B0100088B01000840
:100070008B0100088B0100088B0100088B01000830
:100080008B0100088B0100088B0100088B01000820
:100090008B0100088B0100088B0100088B01000810
:1000A0008B0100088B0100088B0100088B01000800
:1000B00045080008610800088B0100088B01000852
:1000C0008B0100088B0100088B0100088B010008E0
:1000D0008B0100088B0100088B0100088B010008D0
:1000E000CD0100088B0100088B0100088B0100087E
:1000F0008B0100088B0100088B0100088B010008B0
:100100008B0100088B0100088B0100088B0100089F
:100110008B0100088B0100088B0100088B0100088F
:100120008B0100088B0100088B0100088B0100087F
:10013000DFF80CD000F02EF8004800473D0D000815
:100140006004002030B50B46014600202022012427
:1001500009E021FA02F59D4205D303FA02F5491B95
:1001600004FA02F52844151EA2F10102F1DC30BDAB
:100170000648804706480047FEE7FEE7FEE7FEE741
:10018000FEE7FEE7FEE7FEE7FEE7FEE7E50700081D
:1001900031010008064C074D06E0E06840F001031D
:1001A00094E8070098471034AC42F6D3FFF7C4FF39
:1001B000AC0E0008CC0E000800BFFEE70148006846
:1001C00070470000040000207047000010B54FF495
:1001D000806000F053F838B14FF4806000F048F8C8
:1001E0002249086880473FE04FF4006000F046F87D
:1001F00038B14FF4006000F03BF81C494868804774
:1002000032E04FF4805000F039F838B14FF48050AC
:1002100000F02EF815498868804725E04FF400501B
:1002200000F02CF838B14FF4005000F021F80F49DD
:10023000C868804718E04FF4804000F01FF838B1DC
:100240004FF4804000F014F80849086980470BE03B
:100250004FF4004000F012F830B14FF4004000F0CD
:1002600007F802494869804710BD0000440000209B
:100270000149086070470000140401400146002055
:100280000022074B1B6803EA0102054B14331B686D
:100290000B4013B10AB1012000E0002070470000BC
:1002A00000040140002123498279002A3AD00A46FD
:1002B000126803689A430B461A600A1D12680368A5
:1002C0009A430B1D1A60027911440A6803681A43A5
:1002D0000A60184A0832126803689A43154B0833BB
:1002E0001A601A1D126803689A43124B0C331A6085
:1002F0004279102A0ED11A1F126803681A430D4B57
:1003000008331A601A1D126803681A43094B0C332C
:100310001A600DE00749427911440A6803681A43DC
:100320000A6005E0027911440A6803689A430A608A
:10033000704700000004014030B500228B071C0FFD
:100340000F2303FA04F20B4B8C1053F82430934321
:10035000084C8D1044F8253023468C1053F8243077
:100360008C07240F00FA04F42343024C8D1044F848
:10037000253030BD080001402DE9F041024600253E
:100380000026002000230024002791F803C00CF071
:100390000F0591F803C00CF0100CBCF1000F03D056
:1003A00091F802C04CEA050591F800C0BCF1000FBD
:1003B00031D0146800202BE04FF0010C0CFA00F350
:1003C000B1F800C00CEA03069E4220D183004FF032
:1003D0000F0C0CFA03F7BC4305FA03FC4CEA0404C7
:1003E00091F803C0BCF1280F06D14FF0010C0CFAB4
:1003F00000FCC2F814C00AE091F803C0BCF1480F39
:1004000005D14FF0010C0CFA00FCC2F810C0401CE2
:100410000828D1D31460B1F800C0BCF1FF0F34DD5F
:10042000546800202EE000F1080C4FF0010808FA93
:100430000CF3B1F800C00CEA03069E4221D1830000
:100440004FF00F0C0CFA03F7BC4305FA03FC4CEA1F
:10045000040491F803C0BCF1280F05D100F1080C89
:1004600008FA0CF8C2F8148091F803C0BCF1480FE8
:1004700007D100F1080C4FF0010808FA0CF8C2F897
:100480001080401C0828CED35460BDE8F0810AB12A
:10049000016100E04161704700BFFEE700204FF0BE
:1004A000E02148614FF43470486100200861072062
:1004B0000861704700B585B00121042000F086F87E
:1004C0004FF40070ADF8100003208DF812001820D2
:1004D0008DF8130004A91748FFF74EFF01210420EF
:1004E00000F074F84FF48060ADF8100004208DF82F
:1004F000130004A90F48FFF73FFF0121880300F014
:1005000065F84FF4E13000900020ADF80400ADF83C
:100510000600ADF80800ADF80C000C20ADF80A009C
:100520006946054800F0F2F90121034800F0D4F9CA
:1005300005B000BD000801400038014000BFFEE7E3
:100540007047000070B5002100230F22C47804B367
:10055000154C246804F4E064C4F5E064210AC1F198
:100560000403CA40447804FA03F184781440214318
:1005700009010E4C0678A155047804F01F050124EA
:10058000AC4005786D11AD0005F1E025C5F80041DE
:1005900009E0047804F01F050124AC40044D0678FE
:1005A000761145F8264070BD0CED00E000E400E057
:1005B00080E100E002490143024A116070470000F7
:1005C0000000FA050CED00E07047000029B1064A72
:1005D00092690243044B9A6104E0034A92698243A0
:1005E000014B9A61704700000010024030B50021B5
:1005F0000022002400232D4D6D6805F00C0121B16F
:10060000042905D0082923D105E0294D056022E001
:10061000274D05601FE0254D6D6805F47012234DD0
:100620006D6805F48034022505EB92421CB9214D1A
:10063000554305600BE01D4D6D6805F400351DB197
:100640001C4D5543056002E0194D5543056002E01D
:10065000174D056000BF00BF144D6D6805F0F00137
:100660000909154D6B5C0568DD4045600F4D6D68EF
:1006700005F4E061090A104D6B5C4568DD4085605A
:100680000A4D6D6805F46051C90A0B4D6B5C4568F5
:10069000DD40C560054D6D6805F44041890B074D8F
:1006A0006B5CC568B5FBF3F5056130BD0010024019
:1006B00000127A0000093D002C0000203C000020C0
:1006C000704710B500F002F810BD00000CB5002016
:1006D000019000903348006840F480303149086050
:1006E00000BF3048006800F4003000900198401CC2
:1006F0000190009818B90198B0F5A06FF1D1294880
:10070000006800F4003010B10120009001E00020EA
:1007100000900098012843D12348006840F0100061
:10072000214908600846006820F003000860084678
:10073000006840F0020008601A48406819494860A3
:100740000846406848600846406840F48060486059
:100750000846406820F47C1048600846406840F431
:10076000E81048600846006840F08070086000BFEC
:100770000C48006800F000700028F9D00948406873
:1007800020F00300074948600846406840F0020036
:10079000486000BF0348406800F00C000828F9D109
:1007A0000CBD0000001002400020024000B500F027
:1007B0007BF80A480068401C084908600846006841
:1007C0006421B0FBF1F201FB120030B900F078F8BF
:1007D00003480068401C0249086000BD000000207A
:1007E0000400002010B51348006840F001001149D2
:1007F000086008464068104908400E4948600846AD
:1008000000680E4908400B4908600846006820F45B
:10081000802008600846406820F4FE0048604FF4DD
:100820001F008860FFF74DFF4FF00060044908602B
:1008300010BD0000001002400000FFF8FFFFF6FEB0
:1008400008ED00E010B50121880700F01CF828B180
:100850000121880700F014F800F0F4FA10BD000040
:1008600010B50121054800F00EF828B10121034818
:1008700000F006F800F000FB10BD0000000400408E
:10088000CA430282704730B502460020002300248C
:10089000158A05EA0103958905EA010413B10CB133
:1008A000012000E0002030BD0448006820B103486A
:1008B0000068401E01490860704700000C000020DD
:1008C0000448006820B103480068401E01490860E0
:1008D000704700000800002021B1828942F40052D4
:1008E000828104E082894DF6FF731A40828170474D
:1008F00002460020B1F5007F00D100BF13880B40F5
:100900000BB1012000E00020704700002DE9F04706
:1009100086B005460E460024A24600BFA146002729
:10092000B08900B100BF2F462C8A4CF6FF700440FE
:10093000F08804432C82AC894EF6F3100440B08852
:1009400031890843718908430443AC81AC8A4FF66E
:10095000FF400440B0890443AC8201A8FFF746FE83
:100960001F48874202D1DDF810A001E0DDF80CA09D
:10097000A88900F4004040B10AEBCA0000EB0A105D
:1009800031684900B0FBF1F807E00AEBCA0000EB60
:100990000A1031688900B0FBF1F86420B8FBF0F070
:1009A00004012009642101FB1089A88900F400409A
:1009B00040B1322000EBC900B0FBF1F000F00700BD
:1009C000044308E0322000EB09106421B0FBF1F091
:1009D00000F00F0004432C8106B0BDE8F087000052
:1009E00000380140C1F308028280704700BFFEE773
:1009F0000FB4054B10B503A9044A029800F018F88B
:100A000010BC5DF814FB0000090D00084000002038
:100A100002E008C8121F08C1002AFAD170477047C7
:100A2000002001E001C1121F002AFBD17047000025
:100A30002DE9FF4F89B09B460446002506E0252896
:100A40000BD05A460B999047641C6D1C20780028E7
:100A5000F5D10DB02846BDE8F08F0027B846012239
:100A6000474900E0074314F8013F203B02FA03F036
:100A70000842F7D120782E2819D114F8010F47F039
:100A800004072A280ED06FF02F022078A0F1300141
:100A900009290CD808EB880102EB410100EB0108A1
:100AA000641CF2E70A98641C50F8048B0A902078C2
:100AB0000028CED0642808D0692806D075281ED01A
:100AC0005A460B9990476D1C58E00A994FF00A0955
:100AD00001C90A91002802DA40422D2102E03905BD
:100AE00004D52B218DF82010012103E0F90704D053
:100AF0002021F7E78A4608AE0DE00021FAE70A99BF
:100B00004FF00A0901C90A91F7E74946FFF71AFBB6
:100B1000303106F8011D0028F7D1ADEB060000F1D9
:100B20002009780701D44FF00108C84502DDA8EB81
:100B3000090000E000208046002706E008A85A4689
:100B4000C05D0B9990476D1C7F1C5745F6DB04E098
:100B500030205A460B9990476D1CB8F10001A8F15E
:100B60000108F5DC05E016F8010B5A460B99904791
:100B70006D1CB9F10001A9F10109F4DC641C65E701
:100B80000928010010B505200349086008460168DE
:100B900002A0FFF72DFF10BD10000020746D705FE4
:100BA00061203D2025642E2E0A0000007FB50446FA
:100BB0000D46164601211020FFF708FD0A2094FB80
:100BC000F0F100FB11414FF48060884080B2ADF835
:100BD0000C0004208DF80F0003A92448FFF7CCFB7C
:100BE00001210846FFF7F2FC21460220FFF7A4FB93
:100BF0000A2094FBF0F100FB11414FF48060884023
:100C0000019000208DF808008DF8096001208DF812
:100C10000A0001A8FFF746FB4FF4A060FFF7CAFCEB
:100C200028208DF8000003208DF8010001208DF8A8
:100C300002008DF803006846FFF784FC0A2C01DBF4
:100C40000F2C09DD0A2094FBF0F100FB114008494C
:100C5000002241F8202007E00A2094FBF0F100FB7D
:100C60001140034941F820507FBD000000100140B1
:100C70004400002002460A2A05D10C4800680123DE
:100C80008B40184070470B2A05D1094800680123A2
:100C90008B401840F6E70C2A05D1064880680123EE
:100CA0008B401840EEE70020ECE700000808014008
:100CB000080C01400010014070B504460D46164670
:100CC0000A2C07D10120A84081B232460B48FFF719
:100CD000DEFB12E00B2C07D10120A84081B2324686
:100CE0000748FFF7D4FB08E00C2C06D10120A840F0
:100CF00081B232460348FFF7CAFB70BD00080140CD
:100D0000000C01400010014070B504460D46E1B2F0
:100D10000548FFF767FE00BF80210348FFF7E8FDA5
:100D20000028F9D0204670BD0038014010B5FFF70B
:100D300045FA0149086010BD18000020FFF7AEFB1E
:100D4000FFF7B8FB00F050F801E0FFF7EFFFFCE71A
:100D5000F8B504460D4616460A2C04D1012104209C
:100D6000FFF734FC0CE00B2C04D101210820FFF725
:100D70002DFC05E00C2C03D101211020FFF726FCEF
:100D80004FF6FF70854202D1ADF8000004E001206B
:100D9000A84080B2ADF80000012E06D110208DF8D9
:100DA000030003208DF8020003E016B904208DF83B
:100DB00003000A2C04D169460848FFF7DDFA0CE06D
:100DC0000B2C04D169460648FFF7D6FA05E00C2C37
:100DD00003D169460348FFF7CFFAF8BD0008014088
:100DE000000C01400010014010B501224FF6FF71C8
:100DF0000A20FFF7ADFF00224FF6FF710C20FFF72E
:100E0000A7FF0C2206490A20FFF7D0FEFFF7BAFE23
:100E1000FFF7D4F9034908600349086010BD0000DA
:100E20002D0E0008200000201C00002010B50A2113
:100E30000C20FFF71FFF20B9012200210A20FFF735
:100E40003BFF10BD10B50B48007808B9012000E049
:100E50000020084908700846007828B101220021C6
:100E60000B20FFF729FF04E0002211460B20FFF7BB
:100E700023FF10BD1400002010B50B48007808B9FE
:100E8000012000E00020084908700846007828B1D9
:100E9000012211460B20FFF70FFF04E00022012181
:100EA0000B20FFF709FF10BD15000020CC0E000835
:100EB0000000002044000000100A0008100F000885
:100EC000440000201C040000200A0008000000006C
:100ED000000000000000000000000000030000000F
:100EE0000000000000000000000000000000000002
:100EF00000000000010000000000000001020304E7
:100F000001020304060708090204060800000000A5
:0400000508000131BD
:00000001FF
